{
  "contractName": "ERC20PrivacyVault",
  "abi": [
    {
      "inputs": [
        {
          "internalType": "contract ISpendVerifier",
          "name": "_spendVerifier",
          "type": "address"
        },
        {
          "internalType": "contract ICommitmentVerifier",
          "name": "_commitmentVerifier",
          "type": "address"
        },
        {
          "internalType": "uint32",
          "name": "_merkleTreeHeight",
          "type": "uint32"
        },
        {
          "internalType": "address",
          "name": "_operator",
          "type": "address"
        },
        {
          "internalType": "address",
          "name": "_token",
          "type": "address"
        }
      ],
      "payable": false,
      "stateMutability": "nonpayable",
      "type": "constructor"
    },
    {
      "anonymous": false,
      "inputs": [
        {
          "indexed": true,
          "internalType": "bytes32",
          "name": "commitment",
          "type": "bytes32"
        },
        {
          "indexed": false,
          "internalType": "uint32",
          "name": "leafIndex",
          "type": "uint32"
        },
        {
          "indexed": false,
          "internalType": "uint256",
          "name": "timestamp",
          "type": "uint256"
        }
      ],
      "name": "Deposit",
      "type": "event"
    },
    {
      "anonymous": false,
      "inputs": [
        {
          "indexed": false,
          "internalType": "address",
          "name": "to",
          "type": "address"
        },
        {
          "indexed": false,
          "internalType": "bytes32",
          "name": "nullifierHash",
          "type": "bytes32"
        },
        {
          "indexed": false,
          "internalType": "uint256",
          "name": "spendValue",
          "type": "uint256"
        }
      ],
      "name": "Spend",
      "type": "event"
    },
    {
      "constant": true,
      "inputs": [],
      "name": "FIELD_SIZE",
      "outputs": [
        {
          "internalType": "uint256",
          "name": "",
          "type": "uint256"
        }
      ],
      "payable": false,
      "stateMutability": "view",
      "type": "function"
    },
    {
      "constant": true,
      "inputs": [],
      "name": "ZERO_VALUE",
      "outputs": [
        {
          "internalType": "uint256",
          "name": "",
          "type": "uint256"
        }
      ],
      "payable": false,
      "stateMutability": "view",
      "type": "function"
    },
    {
      "constant": false,
      "inputs": [
        {
          "internalType": "address",
          "name": "_newOperator",
          "type": "address"
        }
      ],
      "name": "changeOperator",
      "outputs": [],
      "payable": false,
      "stateMutability": "nonpayable",
      "type": "function"
    },
    {
      "constant": true,
      "inputs": [],
      "name": "commitmentVerifier",
      "outputs": [
        {
          "internalType": "contract ICommitmentVerifier",
          "name": "",
          "type": "address"
        }
      ],
      "payable": false,
      "stateMutability": "view",
      "type": "function"
    },
    {
      "constant": true,
      "inputs": [
        {
          "internalType": "bytes32",
          "name": "",
          "type": "bytes32"
        }
      ],
      "name": "commitments",
      "outputs": [
        {
          "internalType": "bool",
          "name": "",
          "type": "bool"
        }
      ],
      "payable": false,
      "stateMutability": "view",
      "type": "function"
    },
    {
      "constant": true,
      "inputs": [],
      "name": "currentRootIndex",
      "outputs": [
        {
          "internalType": "uint32",
          "name": "",
          "type": "uint32"
        }
      ],
      "payable": false,
      "stateMutability": "view",
      "type": "function"
    },
    {
      "constant": false,
      "inputs": [
        {
          "internalType": "bytes",
          "name": "_proof",
          "type": "bytes"
        },
        {
          "internalType": "bytes32",
          "name": "_commitment",
          "type": "bytes32"
        },
        {
          "internalType": "uint256",
          "name": "_value",
          "type": "uint256"
        }
      ],
      "name": "deposit",
      "outputs": [],
      "payable": true,
      "stateMutability": "payable",
      "type": "function"
    },
    {
      "constant": true,
      "inputs": [
        {
          "internalType": "uint256",
          "name": "",
          "type": "uint256"
        }
      ],
      "name": "filledSubtrees",
      "outputs": [
        {
          "internalType": "bytes32",
          "name": "",
          "type": "bytes32"
        }
      ],
      "payable": false,
      "stateMutability": "view",
      "type": "function"
    },
    {
      "constant": true,
      "inputs": [
        {
          "internalType": "bytes32",
          "name": "_left",
          "type": "bytes32"
        },
        {
          "internalType": "bytes32",
          "name": "_right",
          "type": "bytes32"
        }
      ],
      "name": "hashLeftRight",
      "outputs": [
        {
          "internalType": "bytes32",
          "name": "",
          "type": "bytes32"
        }
      ],
      "payable": false,
      "stateMutability": "pure",
      "type": "function"
    },
    {
      "constant": true,
      "inputs": [
        {
          "internalType": "bytes32",
          "name": "_root",
          "type": "bytes32"
        },
        {
          "internalType": "uint256",
          "name": "_index",
          "type": "uint256"
        }
      ],
      "name": "isKnownRoot",
      "outputs": [
        {
          "internalType": "bool",
          "name": "",
          "type": "bool"
        }
      ],
      "payable": false,
      "stateMutability": "view",
      "type": "function"
    },
    {
      "constant": true,
      "inputs": [
        {
          "internalType": "bytes32",
          "name": "_nullifierHash",
          "type": "bytes32"
        }
      ],
      "name": "isSpent",
      "outputs": [
        {
          "internalType": "bool",
          "name": "",
          "type": "bool"
        }
      ],
      "payable": false,
      "stateMutability": "view",
      "type": "function"
    },
    {
      "constant": true,
      "inputs": [
        {
          "internalType": "bytes32[]",
          "name": "_nullifierHashes",
          "type": "bytes32[]"
        }
      ],
      "name": "isSpentArray",
      "outputs": [
        {
          "internalType": "bool[]",
          "name": "spent",
          "type": "bool[]"
        }
      ],
      "payable": false,
      "stateMutability": "view",
      "type": "function"
    },
    {
      "constant": true,
      "inputs": [],
      "name": "levels",
      "outputs": [
        {
          "internalType": "uint32",
          "name": "",
          "type": "uint32"
        }
      ],
      "payable": false,
      "stateMutability": "view",
      "type": "function"
    },
    {
      "constant": true,
      "inputs": [],
      "name": "nextIndex",
      "outputs": [
        {
          "internalType": "uint32",
          "name": "",
          "type": "uint32"
        }
      ],
      "payable": false,
      "stateMutability": "view",
      "type": "function"
    },
    {
      "constant": true,
      "inputs": [
        {
          "internalType": "bytes32",
          "name": "",
          "type": "bytes32"
        }
      ],
      "name": "nullifierHashes",
      "outputs": [
        {
          "internalType": "bool",
          "name": "",
          "type": "bool"
        }
      ],
      "payable": false,
      "stateMutability": "view",
      "type": "function"
    },
    {
      "constant": true,
      "inputs": [],
      "name": "operator",
      "outputs": [
        {
          "internalType": "address",
          "name": "",
          "type": "address"
        }
      ],
      "payable": false,
      "stateMutability": "view",
      "type": "function"
    },
    {
      "constant": true,
      "inputs": [
        {
          "internalType": "uint256",
          "name": "",
          "type": "uint256"
        }
      ],
      "name": "roots",
      "outputs": [
        {
          "internalType": "bytes32",
          "name": "",
          "type": "bytes32"
        }
      ],
      "payable": false,
      "stateMutability": "view",
      "type": "function"
    },
    {
      "constant": false,
      "inputs": [
        {
          "internalType": "bytes",
          "name": "_proof",
          "type": "bytes"
        },
        {
          "internalType": "bytes",
          "name": "_commitmentProof",
          "type": "bytes"
        },
        {
          "internalType": "bytes32",
          "name": "_root",
          "type": "bytes32"
        },
        {
          "internalType": "uint256",
          "name": "_index",
          "type": "uint256"
        },
        {
          "internalType": "uint256",
          "name": "_spendValue",
          "type": "uint256"
        },
        {
          "internalType": "uint256",
          "name": "_remainValue",
          "type": "uint256"
        },
        {
          "internalType": "bytes32",
          "name": "_nullifierHash",
          "type": "bytes32"
        },
        {
          "internalType": "address payable",
          "name": "_recipient",
          "type": "address"
        },
        {
          "internalType": "bytes32",
          "name": "_newCommitment",
          "type": "bytes32"
        }
      ],
      "name": "spend",
      "outputs": [],
      "payable": true,
      "stateMutability": "payable",
      "type": "function"
    },
    {
      "constant": true,
      "inputs": [],
      "name": "spendVerifier",
      "outputs": [
        {
          "internalType": "contract ISpendVerifier",
          "name": "",
          "type": "address"
        }
      ],
      "payable": false,
      "stateMutability": "view",
      "type": "function"
    },
    {
      "constant": true,
      "inputs": [],
      "name": "token",
      "outputs": [
        {
          "internalType": "address",
          "name": "",
          "type": "address"
        }
      ],
      "payable": false,
      "stateMutability": "view",
      "type": "function"
    },
    {
      "constant": false,
      "inputs": [
        {
          "internalType": "address",
          "name": "_newSpendVerifier",
          "type": "address"
        },
        {
          "internalType": "address",
          "name": "_newCommitmentVerifier",
          "type": "address"
        }
      ],
      "name": "updateVerifier",
      "outputs": [],
      "payable": false,
      "stateMutability": "nonpayable",
      "type": "function"
    },
    {
      "constant": true,
      "inputs": [
        {
          "internalType": "uint256",
          "name": "",
          "type": "uint256"
        }
      ],
      "name": "zeros",
      "outputs": [
        {
          "internalType": "bytes32",
          "name": "",
          "type": "bytes32"
        }
      ],
      "payable": false,
      "stateMutability": "view",
      "type": "function"
    }
  ],
  "bytecode": "0x6080604052600380546001600160401b03191690553480156200002157600080fd5b5060405162001f4338038062001f43833981810160405260a08110156200004757600080fd5b50805160208201516040830151606084015160809094015192939192909190848484848163ffffffff8116620000af5760405162461bcd60e51b815260040180806020018281038252602781526020018062001eba6027913960400191505060405180910390fd5b60208163ffffffff1610620000f65760405162461bcd60e51b815260040180806020018281038252602281526020018062001f016022913960400191505060405180910390fd5b6000805463ffffffff191663ffffffff83161781556002805460018181019092557f2fe54c60d3acabf3343a35b6eba15db4821b340f76e741e2249685ed4899af6c60008051602062001e79833981519152909101819055815480830183559282905260008051602062001f238339815191529092018290555b60005463ffffffff9081169082161015620001e4576200019a82806001600160e01b036200027b16565b60028054600181810190925560008051602062001e798339815191520182905580548082018255600082905260008051602062001f23833981519152018290559092500162000170565b506004620001fc82806001600160e01b036200027b16565b8154600180820184556000938452602090932001556005805460ff191690911790555050600880546001600160a01b03199081166001600160a01b039687161790915560098054821694861694909417909355600a8054841691851691909117905550600b805490911692909116919091179055506200046892505050565b600060008051602062001ee18339815191528310620002e1576040805162461bcd60e51b815260206004820181905260248201527f5f6c6566742073686f756c6420626520696e7369646520746865206669656c64604482015290519081900360640190fd5b60008051602062001ee18339815191528210620003305760405162461bcd60e51b815260040180806020018281038252602181526020018062001e996021913960400191505060405180910390fd5b6040805163f47d33b560e01b81526004810185905260006024820181905282518693919273__Hasher________________________________9263f47d33b592604480840193829003018186803b1580156200038b57600080fd5b505af4158015620003a0573d6000803e3d6000fd5b505050506040513d6040811015620003b757600080fd5b508051602090910151909250905060008051602062001ee1833981519152848308915073__Hasher________________________________63f47d33b583836040518363ffffffff1660e01b81526004018083815260200182815260200192505050604080518083038186803b1580156200043157600080fd5b505af415801562000446573d6000803e3d6000fd5b505050506040513d60408110156200045d57600080fd5b505195945050505050565b611a0180620004786000396000f3fe6080604052600436106101355760003560e01c80639fa12d0b116100ab578063e82955881161006f578063e82955881461057b578063ec732959146105a5578063eca09fa9146105ba578063f178e47c146105f5578063fc0c546a1461061f578063fc7e9c6f1461063457610135565b80639fa12d0b146103d3578063a336956b1461049e578063c2b40ae414610512578063c6e892581461053c578063e5285dcc1461055157610135565b8063570ca735116100fd578063570ca73514610232578063839df94514610263578063876cf0c41461028d57806390eeb02b146102bd57806396cbc43a146102d25780639d90e094146102e757610135565b806306394c9b1461013a57806317cc915c1461016f57806338bf282e146101ad578063414a37ba146101ef5780634ecf518b14610204575b600080fd5b34801561014657600080fd5b5061016d6004803603602081101561015d57600080fd5b50356001600160a01b0316610649565b005b34801561017b57600080fd5b506101996004803603602081101561019257600080fd5b50356106b4565b604080519115158252519081900360200190f35b3480156101b957600080fd5b506101dd600480360360408110156101d057600080fd5b50803590602001356106c9565b60408051918252519081900360200190f35b3480156101fb57600080fd5b506101dd6108ac565b34801561021057600080fd5b506102196108be565b6040805163ffffffff9092168252519081900360200190f35b34801561023e57600080fd5b506102476108ca565b604080516001600160a01b039092168252519081900360200190f35b34801561026f57600080fd5b506101996004803603602081101561028657600080fd5b50356108d9565b34801561029957600080fd5b50610199600480360360408110156102b057600080fd5b50803590602001356108ee565b3480156102c957600080fd5b5061021961092d565b3480156102de57600080fd5b50610247610939565b61016d60048036036101208110156102fe57600080fd5b810190602081018135600160201b81111561031857600080fd5b82018360208201111561032a57600080fd5b803590602001918460018302840111600160201b8311171561034b57600080fd5b919390929091602081019035600160201b81111561036857600080fd5b82018360208201111561037a57600080fd5b803590602001918460018302840111600160201b8311171561039b57600080fd5b91935091508035906020810135906040810135906060810135906080810135906001600160a01b0360a0820135169060c00135610948565b3480156103df57600080fd5b5061044e600480360360208110156103f657600080fd5b810190602081018135600160201b81111561041057600080fd5b82018360208201111561042257600080fd5b803590602001918460208302840111600160201b8311171561044357600080fd5b509092509050610c95565b60408051602080825283518183015283519192839290830191858101910280838360005b8381101561048a578181015183820152602001610472565b505050509050019250505060405180910390f35b61016d600480360360608110156104b457600080fd5b810190602081018135600160201b8111156104ce57600080fd5b8201836020820111156104e057600080fd5b803590602001918460018302840111600160201b8311171561050157600080fd5b919350915080359060200135610d1d565b34801561051e57600080fd5b506101dd6004803603602081101561053557600080fd5b5035610f7f565b34801561054857600080fd5b50610247610f9d565b34801561055d57600080fd5b506101996004803603602081101561057457600080fd5b5035610fac565b34801561058757600080fd5b506101dd6004803603602081101561059e57600080fd5b5035610fc1565b3480156105b157600080fd5b506101dd610fce565b3480156105c657600080fd5b5061016d600480360360408110156105dd57600080fd5b506001600160a01b0381358116916020013516610ff2565b34801561060157600080fd5b506101dd6004803603602081101561061857600080fd5b5035611069565b34801561062b57600080fd5b50610247611076565b34801561064057600080fd5b50610219611085565b600a546001600160a01b031633146106925760405162461bcd60e51b81526004018080602001828103825260258152602001806119a86025913960400191505060405180910390fd5b600a80546001600160a01b0319166001600160a01b0392909216919091179055565b60066020526000908152604090205460ff1681565b6000600080516020611937833981519152831061072d576040805162461bcd60e51b815260206004820181905260248201527f5f6c6566742073686f756c6420626520696e7369646520746865206669656c64604482015290519081900360640190fd5b60008051602061193783398151915282106107795760405162461bcd60e51b81526004018080602001828103825260218152602001806118e76021913960400191505060405180910390fd5b6040805163f47d33b560e01b81526004810185905260006024820181905282518693919273__Hasher________________________________9263f47d33b592604480840193829003018186803b1580156107d357600080fd5b505af41580156107e7573d6000803e3d6000fd5b505050506040513d60408110156107fd57600080fd5b5080516020909101519092509050600080516020611937833981519152848308915073__Hasher________________________________63f47d33b583836040518363ffffffff1660e01b81526004018083815260200182815260200192505050604080518083038186803b15801561087557600080fd5b505af4158015610889573d6000803e3d6000fd5b505050506040513d604081101561089f57600080fd5b5051925050505b92915050565b60008051602061193783398151915281565b60005463ffffffff1681565b600a546001600160a01b031681565b60076020526000908152604090205460ff1681565b6000826108fd575060006108a6565b826004838154811061090b57fe5b90600052602060002001541415610924575060016108a6565b50600092915050565b60035463ffffffff1681565b6008546001600160a01b031681565b60055460ff1661099f576040805162461bcd60e51b815260206004820152601f60248201527f5265656e7472616e637947756172643a207265656e7472616e742063616c6c00604482015290519081900360640190fd5b6005805460ff1916905560008381526006602052604090205460ff1615610a0d576040805162461bcd60e51b815260206004820152601f60248201527f546865206e6f746520686173206265656e20616c7265616479207370656e7400604482015290519081900360640190fd5b610a1787876108ee565b610a68576040805162461bcd60e51b815260206004820152601c60248201527f43616e6e6f742066696e6420796f7572206d65726b6c6520726f6f7400000000604482015290519081900360640190fd5b60008486019050600860009054906101000a90046001600160a01b03166001600160a01b0316636bf062b28d8d60405180608001604052808d60001c81526020018960001c8152602001868152602001886001600160a01b03168152506040518463ffffffff1660e01b8152600401808060200183600460200280838360005b83811015610b00578181015183820152602001610ae8565b505050509050018281038252858582818152602001925080828437600081840152601f19601f820116905080830192505050945050505050602060405180830381600087803b158015610b5257600080fd5b505af1158015610b66573d6000803e3d6000fd5b505050506040513d6020811015610b7c57600080fd5b5051610bc5576040805162461bcd60e51b815260206004820152601360248201527224b73b30b634b21029b832b73210383937b7b360691b604482015290519081900360640190fd5b6000848152600660205260409020805460ff19166001179055610be88387611098565b604080516001600160a01b03851681526020810186905280820188905290517f4d0f20a17c2c69e32859d771e28b0e67ea0f2574c3bdd24d09e2483fc36f26799181900360600190a18415610c7a57610c7a8a8a8080601f0160208091040260200160405190810160405280939291908181526020018383808284376000920191909152508692508991506110a69050565b50506005805460ff1916600117905550505050505050505050565b604080518281526020808402820101909152606090828015610cc1578160200160208202803883390190505b50905060005b82811015610d1657610cea848483818110610cde57fe5b90506020020135610fac565b15610d0e576001828281518110610cfd57fe5b911515602092830291909101909101525b600101610cc7565b5092915050565b60055460ff16610d74576040805162461bcd60e51b815260206004820152601f60248201527f5265656e7472616e637947756172643a207265656e7472616e742063616c6c00604482015290519081900360640190fd5b6005805460ff1916905560008281526007602052604090205460ff1615610dcc5760405162461bcd60e51b81526004018080602001828103825260218152602001806119576021913960400191505060405180910390fd5b6000610dd7836112c4565b6000848152600760205260409020805460ff191660011790559050610dfb82611464565b6009546040805180820182528581526020810185905281516370ffa84160e11b81526001600160a01b039093169263e1ff50829289928992909160048201918291602490910190849080838360005b83811015610e62578181015183820152602001610e4a565b505050509050018281038252858582818152602001925080828437600081840152601f19601f820116905080830192505050945050505050602060405180830381600087803b158015610eb457600080fd5b505af1158015610ec8573d6000803e3d6000fd5b505050506040513d6020811015610ede57600080fd5b5051610f2c576040805162461bcd60e51b815260206004820152601860248201527724b73b30b634b21021b7b6b6b4ba36b2b73a10383937b7b360411b604482015290519081900360640190fd5b6040805163ffffffff83168152426020820152815185927fa945e51eec50ab98c161376f0db4cf2aeba3ec92755fe2fcd388bdbbb80ff196928290030190a250506005805460ff19166001179055505050565b60048181548110610f8c57fe5b600091825260209091200154905081565b6009546001600160a01b031681565b60009081526006602052604090205460ff1690565b60028181548110610f8c57fe5b7f2fe54c60d3acabf3343a35b6eba15db4821b340f76e741e2249685ed4899af6c81565b600a546001600160a01b0316331461103b5760405162461bcd60e51b81526004018080602001828103825260258152602001806119a86025913960400191505060405180910390fd5b600880546001600160a01b039384166001600160a01b03199182161790915560098054929093169116179055565b60018181548110610f8c57fe5b600b546001600160a01b031681565b600354600160201b900463ffffffff1681565b6110a282826114af565b5050565b60008281526007602052604090205460ff16156110f45760405162461bcd60e51b81526004018080602001828103825260218152602001806119576021913960400191505060405180910390fd5b60006110ff836112c4565b6000848152600760209081526040808320805460ff191660011790556009548151808301835288815292830187905281516370ffa84160e11b81529495506001600160a01b03169363e1ff5082938993926004830192839260249091019185918190849084905b8381101561117e578181015183820152602001611166565b50505050905001828103825284818151815260200191508051906020019080838360005b838110156111ba5781810151838201526020016111a2565b50505050905090810190601f1680156111e75780820380516001836020036101000a031916815260200191505b509350505050602060405180830381600087803b15801561120757600080fd5b505af115801561121b573d6000803e3d6000fd5b505050506040513d602081101561123157600080fd5b505161127f576040805162461bcd60e51b815260206004820152601860248201527724b73b30b634b21021b7b6b6b4ba36b2b73a10383937b7b360411b604482015290519081900360640190fd5b6040805163ffffffff83168152426020820152815185927fa945e51eec50ab98c161376f0db4cf2aeba3ec92755fe2fcd388bdbbb80ff196928290030190a250505050565b60035460008054909163ffffffff600160201b909104811691811660020a168114156113215760405162461bcd60e51b815260040180806020018281038252602f815260200180611867602f913960400191505060405180910390fd5b6003805463ffffffff600160201b80830482166001019091160267ffffffff000000001990911617905582600080805b60005463ffffffff90811690821610156113f957600185166113b55783925060028163ffffffff168154811061138357fe5b906000526020600020015491508360018263ffffffff16815481106113a457fe5b6000918252602090912001556113d9565b60018163ffffffff16815481106113c857fe5b906000526020600020015492508391505b6113e383836106c9565b9350600263ffffffff8616049450600101611351565b50506003805463ffffffff198116600163ffffffff928316810183169190911783556004805491820181556000527f8a35acfbc15ff81a39ae7d344fd709f28e8600b4aa8c65c6b64bfe7fe36bd19b019390935554600160201b900490911660001901949350505050565b34156114a15760405162461bcd60e51b81526004018080602001828103825260308152602001806119786030913960400191505060405180910390fd5b6114ac333083611680565b50565b600b54604080516001600160a01b038581166024830152604480830186905283518084039091018152606490920183526020820180516001600160e01b031663a9059cbb60e01b178152925182516000956060959316939282918083835b6020831061152c5780518252601f19909201916020918201910161150d565b6001836020036101000a0380198251168184511680821785525050505050509050019150506000604051808303816000865af19150503d806000811461158e576040519150601f19603f3d011682016040523d82523d6000602084013e611593565b606091505b5091509150816115de576040805162461bcd60e51b81526020600482015260116024820152706e6f7420656e6f75676820746f6b656e7360781b604482015290519081900360640190fd5b80511561167a5780516020146116255760405162461bcd60e51b815260040180806020018281038252602a815260200180611896602a913960400191505060405180910390fd5b80806020019051602081101561163a57600080fd5b505191508161167a5760405162461bcd60e51b81526004018080602001828103825260278152602001806118c06027913960400191505060405180910390fd5b50505050565b600b54604080516001600160a01b0386811660248301528581166044830152606480830186905283518084039091018152608490920183526020820180516001600160e01b03166323b872dd60e01b178152925182516000956060959316939282918083835b602083106117055780518252601f1990920191602091820191016116e6565b6001836020036101000a0380198251168184511680821785525050505050509050019150506000604051808303816000865af19150503d8060008114611767576040519150601f19603f3d011682016040523d82523d6000602084013e61176c565b606091505b5091509150816117c3576040805162461bcd60e51b815260206004820152601960248201527f6e6f7420656e6f75676820616c6c6f77656420746f6b656e7300000000000000604482015290519081900360640190fd5b80511561185f57805160201461180a5760405162461bcd60e51b815260040180806020018281038252602a815260200180611896602a913960400191505060405180910390fd5b80806020019051602081101561181f57600080fd5b505191508161185f5760405162461bcd60e51b815260040180806020018281038252602f815260200180611908602f913960400191505060405180910390fd5b505050505056fe4d65726b6c6520747265652069732066756c6c2e204e6f206d6f7265206c656166732063616e20626520616464656464617461206c656e6774682073686f756c64206265206569746865722030206f722033322062797465736e6f7420656e6f75676820746f6b656e732e20546f6b656e2072657475726e732066616c73652e5f72696768742073686f756c6420626520696e7369646520746865206669656c646e6f7420656e6f75676820616c6c6f77656420746f6b656e732e20546f6b656e2072657475726e732066616c73652e30644e72e131a029b85045b68181585d2833e84879b9709143e1f593f000000154686520636f6d6d69746d656e7420686173206265656e207375626d69747465644554482076616c756520697320737570706f73656420746f206265203020666f7220455243323020696e7374616e63654f6e6c79206f70657261746f722063616e2063616c6c20746869732066756e6374696f6e2ea265627a7a723158204e96121de1174ba9da8f47b8762c84dccfea33ba46786e7b26cb2823097394f764736f6c63430005110032405787fa12a823e0f2b7631cc41b3ba8828b3321ca811111fa75cd3aa3bb5ace5f72696768742073686f756c6420626520696e7369646520746865206669656c645f747265654c6576656c732073686f756c642062652067726561746572207468616e207a65726f30644e72e131a029b85045b68181585d2833e84879b9709143e1f593f00000015f747265654c6576656c732073686f756c64206265206c657373207468616e203332b10e2d527612073b26eecdfd717e6a320cf44b4afac2b0732d9fcbe2b7fa0cf6",
  "source": "// https://tornado.cash\n/*\n* d888888P                                           dP              a88888b.                   dP\n*    88                                              88             d8'   `88                   88\n*    88    .d8888b. 88d888b. 88d888b. .d8888b. .d888b88 .d8888b.    88        .d8888b. .d8888b. 88d888b.\n*    88    88'  `88 88'  `88 88'  `88 88'  `88 88'  `88 88'  `88    88        88'  `88 Y8ooooo. 88'  `88\n*    88    88.  .88 88       88    88 88.  .88 88.  .88 88.  .88 dP Y8.   .88 88.  .88       88 88    88\n*    dP    `88888P' dP       dP    dP `88888P8 `88888P8 `88888P' 88  Y88888P' `88888P8 `88888P' dP    dP\n* ooooooooooooooooooooooooooooooooooooooooooooooooooooooooooooooooooooooooooooooooooooooooooooooooooooooo\n*/\n\npragma solidity 0.5.17;\n\nimport \"./PrivacyVault.sol\";\n\ncontract ERC20PrivacyVault is PrivacyVault {\n  address public token;\n\n  constructor(\n    ISpendVerifier _spendVerifier,\n    ICommitmentVerifier _commitmentVerifier,\n    uint32 _merkleTreeHeight,\n    address _operator,\n    address _token\n  ) PrivacyVault(_spendVerifier, _commitmentVerifier, _merkleTreeHeight, _operator) public {\n    token = _token;\n  }\n\n  function _processDeposit(uint256 _value) internal {\n    require(msg.value == 0, \"ETH value is supposed to be 0 for ERC20 instance\");\n    _safeErc20TransferFrom(msg.sender, address(this), _value);\n  }\n\n  function _processSpend(address payable _recipient, uint256 _value) internal {\n\n    _safeErc20Transfer(_recipient, _value);\n\n  }\n\n  function _safeErc20TransferFrom(address _from, address _to, uint256 _amount) internal {\n    (bool success, bytes memory data) = token.call(abi.encodeWithSelector(0x23b872dd, _from, _to, _amount));\n    require(success, \"not enough allowed tokens\");\n\n    // if contract returns some data lets make sure that is `true` according to standard\n    if (data.length > 0) {\n      require(data.length == 32, \"data length should be either 0 or 32 bytes\");\n      success = abi.decode(data, (bool));\n      require(success, \"not enough allowed tokens. Token returns false.\");\n    }\n  }\n\n  function _safeErc20Transfer(address _to, uint256 _amount) internal {\n    (bool success, bytes memory data) = token.call(abi.encodeWithSelector(0xa9059cbb, _to, _amount));\n    require(success, \"not enough tokens\");\n\n    // if contract returns some data lets make sure that is `true` according to standard\n    if (data.length > 0) {\n      require(data.length == 32, \"data length should be either 0 or 32 bytes\");\n      success = abi.decode(data, (bool));\n      require(success, \"not enough tokens. Token returns false.\");\n    }\n  }\n}\n",
  "sourcePath": "/home/zy/privacy-vault/contracts/ERC20PrivacyVault.sol",
  "compiler": {
    "name": "solc",
    "version": "0.5.17+commit.d19bba13.Emscripten.clang"
  },
  "schemaVersion": "3.2.0",
  "updatedAt": "2020-06-29T10:24:20.962Z",
  "networkType": "ethereum",
  "devdoc": {
    "methods": {
      "changeOperator(address)": {
        "details": "operator can change his address "
      },
      "hashLeftRight(bytes32,bytes32)": {
        "details": "Hash 2 tree leaves, returns MiMC(_left, _right)"
      },
      "isKnownRoot(bytes32,uint256)": {
        "details": "Whether the root is present in the root history"
      },
      "isSpent(bytes32)": {
        "details": "whether a note is already spent "
      },
      "isSpentArray(bytes32[])": {
        "details": "whether an array of notes is already spent "
      }
    }
  },
  "userdoc": {
    "methods": {}
  }
}