{
  "contractName": "ETHPrivacyVault",
  "abi": [
    {
      "inputs": [
        {
          "internalType": "contract ISpendVerifier",
          "name": "_spendVerifier",
          "type": "address"
        },
        {
          "internalType": "contract ICommitmentVerifier",
          "name": "_commitmentVerifier",
          "type": "address"
        },
        {
          "internalType": "uint32",
          "name": "_merkleTreeHeight",
          "type": "uint32"
        },
        {
          "internalType": "address",
          "name": "_operator",
          "type": "address"
        }
      ],
      "payable": false,
      "stateMutability": "nonpayable",
      "type": "constructor"
    },
    {
      "anonymous": false,
      "inputs": [
        {
          "indexed": true,
          "internalType": "bytes32",
          "name": "commitment",
          "type": "bytes32"
        },
        {
          "indexed": false,
          "internalType": "uint32",
          "name": "leafIndex",
          "type": "uint32"
        },
        {
          "indexed": false,
          "internalType": "uint256",
          "name": "timestamp",
          "type": "uint256"
        }
      ],
      "name": "Deposit",
      "type": "event"
    },
    {
      "anonymous": false,
      "inputs": [
        {
          "indexed": false,
          "internalType": "address",
          "name": "to",
          "type": "address"
        },
        {
          "indexed": false,
          "internalType": "bytes32",
          "name": "nullifierHash",
          "type": "bytes32"
        },
        {
          "indexed": false,
          "internalType": "uint256",
          "name": "spendValue",
          "type": "uint256"
        }
      ],
      "name": "Spend",
      "type": "event"
    },
    {
      "constant": true,
      "inputs": [],
      "name": "FIELD_SIZE",
      "outputs": [
        {
          "internalType": "uint256",
          "name": "",
          "type": "uint256"
        }
      ],
      "payable": false,
      "stateMutability": "view",
      "type": "function"
    },
    {
      "constant": true,
      "inputs": [],
      "name": "ZERO_VALUE",
      "outputs": [
        {
          "internalType": "uint256",
          "name": "",
          "type": "uint256"
        }
      ],
      "payable": false,
      "stateMutability": "view",
      "type": "function"
    },
    {
      "constant": false,
      "inputs": [
        {
          "internalType": "address",
          "name": "_newOperator",
          "type": "address"
        }
      ],
      "name": "changeOperator",
      "outputs": [],
      "payable": false,
      "stateMutability": "nonpayable",
      "type": "function"
    },
    {
      "constant": true,
      "inputs": [],
      "name": "commitmentVerifier",
      "outputs": [
        {
          "internalType": "contract ICommitmentVerifier",
          "name": "",
          "type": "address"
        }
      ],
      "payable": false,
      "stateMutability": "view",
      "type": "function"
    },
    {
      "constant": true,
      "inputs": [
        {
          "internalType": "bytes32",
          "name": "",
          "type": "bytes32"
        }
      ],
      "name": "commitments",
      "outputs": [
        {
          "internalType": "bool",
          "name": "",
          "type": "bool"
        }
      ],
      "payable": false,
      "stateMutability": "view",
      "type": "function"
    },
    {
      "constant": true,
      "inputs": [],
      "name": "currentRootIndex",
      "outputs": [
        {
          "internalType": "uint32",
          "name": "",
          "type": "uint32"
        }
      ],
      "payable": false,
      "stateMutability": "view",
      "type": "function"
    },
    {
      "constant": false,
      "inputs": [
        {
          "internalType": "bytes",
          "name": "_proof",
          "type": "bytes"
        },
        {
          "internalType": "bytes32",
          "name": "_commitment",
          "type": "bytes32"
        },
        {
          "internalType": "uint256",
          "name": "_value",
          "type": "uint256"
        }
      ],
      "name": "deposit",
      "outputs": [],
      "payable": true,
      "stateMutability": "payable",
      "type": "function"
    },
    {
      "constant": true,
      "inputs": [
        {
          "internalType": "uint256",
          "name": "",
          "type": "uint256"
        }
      ],
      "name": "filledSubtrees",
      "outputs": [
        {
          "internalType": "bytes32",
          "name": "",
          "type": "bytes32"
        }
      ],
      "payable": false,
      "stateMutability": "view",
      "type": "function"
    },
    {
      "constant": true,
      "inputs": [
        {
          "internalType": "bytes32",
          "name": "_left",
          "type": "bytes32"
        },
        {
          "internalType": "bytes32",
          "name": "_right",
          "type": "bytes32"
        }
      ],
      "name": "hashLeftRight",
      "outputs": [
        {
          "internalType": "bytes32",
          "name": "",
          "type": "bytes32"
        }
      ],
      "payable": false,
      "stateMutability": "pure",
      "type": "function"
    },
    {
      "constant": true,
      "inputs": [
        {
          "internalType": "bytes32",
          "name": "_root",
          "type": "bytes32"
        },
        {
          "internalType": "uint256",
          "name": "_index",
          "type": "uint256"
        }
      ],
      "name": "isKnownRoot",
      "outputs": [
        {
          "internalType": "bool",
          "name": "",
          "type": "bool"
        }
      ],
      "payable": false,
      "stateMutability": "view",
      "type": "function"
    },
    {
      "constant": true,
      "inputs": [
        {
          "internalType": "bytes32",
          "name": "_nullifierHash",
          "type": "bytes32"
        }
      ],
      "name": "isSpent",
      "outputs": [
        {
          "internalType": "bool",
          "name": "",
          "type": "bool"
        }
      ],
      "payable": false,
      "stateMutability": "view",
      "type": "function"
    },
    {
      "constant": true,
      "inputs": [
        {
          "internalType": "bytes32[]",
          "name": "_nullifierHashes",
          "type": "bytes32[]"
        }
      ],
      "name": "isSpentArray",
      "outputs": [
        {
          "internalType": "bool[]",
          "name": "spent",
          "type": "bool[]"
        }
      ],
      "payable": false,
      "stateMutability": "view",
      "type": "function"
    },
    {
      "constant": true,
      "inputs": [],
      "name": "levels",
      "outputs": [
        {
          "internalType": "uint32",
          "name": "",
          "type": "uint32"
        }
      ],
      "payable": false,
      "stateMutability": "view",
      "type": "function"
    },
    {
      "constant": true,
      "inputs": [],
      "name": "nextIndex",
      "outputs": [
        {
          "internalType": "uint32",
          "name": "",
          "type": "uint32"
        }
      ],
      "payable": false,
      "stateMutability": "view",
      "type": "function"
    },
    {
      "constant": true,
      "inputs": [
        {
          "internalType": "bytes32",
          "name": "",
          "type": "bytes32"
        }
      ],
      "name": "nullifierHashes",
      "outputs": [
        {
          "internalType": "bool",
          "name": "",
          "type": "bool"
        }
      ],
      "payable": false,
      "stateMutability": "view",
      "type": "function"
    },
    {
      "constant": true,
      "inputs": [],
      "name": "operator",
      "outputs": [
        {
          "internalType": "address",
          "name": "",
          "type": "address"
        }
      ],
      "payable": false,
      "stateMutability": "view",
      "type": "function"
    },
    {
      "constant": true,
      "inputs": [
        {
          "internalType": "uint256",
          "name": "",
          "type": "uint256"
        }
      ],
      "name": "roots",
      "outputs": [
        {
          "internalType": "bytes32",
          "name": "",
          "type": "bytes32"
        }
      ],
      "payable": false,
      "stateMutability": "view",
      "type": "function"
    },
    {
      "constant": false,
      "inputs": [
        {
          "internalType": "bytes",
          "name": "_proof",
          "type": "bytes"
        },
        {
          "internalType": "bytes",
          "name": "_commitmentProof",
          "type": "bytes"
        },
        {
          "internalType": "bytes32",
          "name": "_root",
          "type": "bytes32"
        },
        {
          "internalType": "uint256",
          "name": "_index",
          "type": "uint256"
        },
        {
          "internalType": "uint256",
          "name": "_spendValue",
          "type": "uint256"
        },
        {
          "internalType": "uint256",
          "name": "_remainValue",
          "type": "uint256"
        },
        {
          "internalType": "bytes32",
          "name": "_nullifierHash",
          "type": "bytes32"
        },
        {
          "internalType": "address payable",
          "name": "_recipient",
          "type": "address"
        },
        {
          "internalType": "bytes32",
          "name": "_newCommitment",
          "type": "bytes32"
        }
      ],
      "name": "spend",
      "outputs": [],
      "payable": true,
      "stateMutability": "payable",
      "type": "function"
    },
    {
      "constant": true,
      "inputs": [],
      "name": "spendVerifier",
      "outputs": [
        {
          "internalType": "contract ISpendVerifier",
          "name": "",
          "type": "address"
        }
      ],
      "payable": false,
      "stateMutability": "view",
      "type": "function"
    },
    {
      "constant": false,
      "inputs": [
        {
          "internalType": "address",
          "name": "_newSpendVerifier",
          "type": "address"
        },
        {
          "internalType": "address",
          "name": "_newCommitmentVerifier",
          "type": "address"
        }
      ],
      "name": "updateVerifier",
      "outputs": [],
      "payable": false,
      "stateMutability": "nonpayable",
      "type": "function"
    },
    {
      "constant": true,
      "inputs": [
        {
          "internalType": "uint256",
          "name": "",
          "type": "uint256"
        }
      ],
      "name": "zeros",
      "outputs": [
        {
          "internalType": "bytes32",
          "name": "",
          "type": "bytes32"
        }
      ],
      "payable": false,
      "stateMutability": "view",
      "type": "function"
    }
  ],
  "bytecode": "0x6080604052600380546001600160401b03191690553480156200002157600080fd5b5060405162001bb538038062001bb5833981810160405260808110156200004757600080fd5b5080516020820151604083015160609093015191929091838383838163ffffffff8116620000a75760405162461bcd60e51b815260040180806020018281038252602781526020018062001b2c6027913960400191505060405180910390fd5b60208163ffffffff1610620000ee5760405162461bcd60e51b815260040180806020018281038252602281526020018062001b736022913960400191505060405180910390fd5b6000805463ffffffff191663ffffffff83161781556002805460018181019092557f2fe54c60d3acabf3343a35b6eba15db4821b340f76e741e2249685ed4899af6c60008051602062001aeb833981519152909101819055815480830183559282905260008051602062001b958339815191529092018290555b60005463ffffffff9081169082161015620001dc576200019282806001600160e01b036200025816565b60028054600181810190925560008051602062001aeb8339815191520182905580548082018255600082905260008051602062001b95833981519152018290559092500162000168565b506004620001f482806001600160e01b036200025816565b8154600180820184556000938452602090932001556005555050600880546001600160a01b03199081166001600160a01b039687161790915560098054821694861694909417909355600a8054909316931692909217905550620004459350505050565b600060008051602062001b538339815191528310620002be576040805162461bcd60e51b815260206004820181905260248201527f5f6c6566742073686f756c6420626520696e7369646520746865206669656c64604482015290519081900360640190fd5b60008051602062001b5383398151915282106200030d5760405162461bcd60e51b815260040180806020018281038252602181526020018062001b0b6021913960400191505060405180910390fd5b6040805163f47d33b560e01b81526004810185905260006024820181905282518693919273__Hasher________________________________9263f47d33b592604480840193829003018186803b1580156200036857600080fd5b505af41580156200037d573d6000803e3d6000fd5b505050506040513d60408110156200039457600080fd5b508051602090910151909250905060008051602062001b53833981519152848308915073__Hasher________________________________63f47d33b583836040518363ffffffff1660e01b81526004018083815260200182815260200192505050604080518083038186803b1580156200040e57600080fd5b505af415801562000423573d6000803e3d6000fd5b505050506040513d60408110156200043a57600080fd5b505195945050505050565b61169680620004556000396000f3fe60806040526004361061012a5760003560e01c80639d90e094116100ab578063e5285dcc1161006f578063e5285dcc14610546578063e829558814610570578063ec7329591461059a578063eca09fa9146105af578063f178e47c146105ea578063fc7e9c6f146106145761012a565b80639d90e094146102dc5780639fa12d0b146103c8578063a336956b14610493578063c2b40ae414610507578063c6e89258146105315761012a565b8063570ca735116100f2578063570ca73514610227578063839df94514610258578063876cf0c41461028257806390eeb02b146102b257806396cbc43a146102c75761012a565b806306394c9b1461012f57806317cc915c1461016457806338bf282e146101a2578063414a37ba146101e45780634ecf518b146101f9575b600080fd5b34801561013b57600080fd5b506101626004803603602081101561015257600080fd5b50356001600160a01b0316610629565b005b34801561017057600080fd5b5061018e6004803603602081101561018757600080fd5b5035610694565b604080519115158252519081900360200190f35b3480156101ae57600080fd5b506101d2600480360360408110156101c557600080fd5b50803590602001356106a9565b60408051918252519081900360200190f35b3480156101f057600080fd5b506101d261088c565b34801561020557600080fd5b5061020e61089e565b6040805163ffffffff9092168252519081900360200190f35b34801561023357600080fd5b5061023c6108aa565b604080516001600160a01b039092168252519081900360200190f35b34801561026457600080fd5b5061018e6004803603602081101561027b57600080fd5b50356108b9565b34801561028e57600080fd5b5061018e600480360360408110156102a557600080fd5b50803590602001356108ce565b3480156102be57600080fd5b5061020e61090d565b3480156102d357600080fd5b5061023c610919565b61016260048036036101208110156102f357600080fd5b810190602081018135600160201b81111561030d57600080fd5b82018360208201111561031f57600080fd5b803590602001918460018302840111600160201b8311171561034057600080fd5b919390929091602081019035600160201b81111561035d57600080fd5b82018360208201111561036f57600080fd5b803590602001918460018302840111600160201b8311171561039057600080fd5b91935091508035906020810135906040810135906060810135906080810135906001600160a01b0360a0820135169060c00135610928565b3480156103d457600080fd5b50610443600480360360208110156103eb57600080fd5b810190602081018135600160201b81111561040557600080fd5b82018360208201111561041757600080fd5b803590602001918460208302840111600160201b8311171561043857600080fd5b509092509050610c69565b60408051602080825283518183015283519192839290830191858101910280838360005b8381101561047f578181015183820152602001610467565b505050509050019250505060405180910390f35b610162600480360360608110156104a957600080fd5b810190602081018135600160201b8111156104c357600080fd5b8201836020820111156104d557600080fd5b803590602001918460018302840111600160201b831117156104f657600080fd5b919350915080359060200135610cf1565b34801561051357600080fd5b506101d26004803603602081101561052a57600080fd5b5035610f47565b34801561053d57600080fd5b5061023c610f65565b34801561055257600080fd5b5061018e6004803603602081101561056957600080fd5b5035610f74565b34801561057c57600080fd5b506101d26004803603602081101561059357600080fd5b5035610f89565b3480156105a657600080fd5b506101d2610f96565b3480156105bb57600080fd5b50610162600480360360408110156105d257600080fd5b506001600160a01b0381358116916020013516610fba565b3480156105f657600080fd5b506101d26004803603602081101561060d57600080fd5b5035611031565b34801561062057600080fd5b5061020e61103e565b600a546001600160a01b031633146106725760405162461bcd60e51b81526004018080602001828103825260258152602001806116086025913960400191505060405180910390fd5b600a80546001600160a01b0319166001600160a01b0392909216919091179055565b60066020526000908152604090205460ff1681565b60006000805160206115a2833981519152831061070d576040805162461bcd60e51b815260206004820181905260248201527f5f6c6566742073686f756c6420626520696e7369646520746865206669656c64604482015290519081900360640190fd5b6000805160206115a283398151915282106107595760405162461bcd60e51b81526004018080602001828103825260218152602001806115816021913960400191505060405180910390fd5b6040805163f47d33b560e01b81526004810185905260006024820181905282518693919273__Hasher________________________________9263f47d33b592604480840193829003018186803b1580156107b357600080fd5b505af41580156107c7573d6000803e3d6000fd5b505050506040513d60408110156107dd57600080fd5b50805160209091015190925090506000805160206115a2833981519152848308915073__Hasher________________________________63f47d33b583836040518363ffffffff1660e01b81526004018083815260200182815260200192505050604080518083038186803b15801561085557600080fd5b505af4158015610869573d6000803e3d6000fd5b505050506040513d604081101561087f57600080fd5b5051925050505b92915050565b6000805160206115a283398151915281565b60005463ffffffff1681565b600a546001600160a01b031681565b60076020526000908152604090205460ff1681565b6000826108dd57506000610886565b82600483815481106108eb57fe5b9060005260206000200154141561090457506001610886565b50600092915050565b60035463ffffffff1681565b6008546001600160a01b031681565b600580546001019081905560008481526006602052604090205460ff1615610997576040805162461bcd60e51b815260206004820152601f60248201527f546865206e6f746520686173206265656e20616c7265616479207370656e7400604482015290519081900360640190fd5b6109a188886108ce565b6109f2576040805162461bcd60e51b815260206004820152601c60248201527f43616e6e6f742066696e6420796f7572206d65726b6c6520726f6f7400000000604482015290519081900360640190fd5b60008587019050600860009054906101000a90046001600160a01b03166001600160a01b0316636bf062b28e8e60405180608001604052808e60001c81526020018a60001c8152602001868152602001896001600160a01b03168152506040518463ffffffff1660e01b8152600401808060200183600460200280838360005b83811015610a8a578181015183820152602001610a72565b505050509050018281038252858582818152602001925080828437600081840152601f19601f820116905080830192505050945050505050602060405180830381600087803b158015610adc57600080fd5b505af1158015610af0573d6000803e3d6000fd5b505050506040513d6020811015610b0657600080fd5b5051610b4f576040805162461bcd60e51b815260206004820152601360248201527224b73b30b634b21029b832b73210383937b7b360691b604482015290519081900360640190fd5b6000858152600660205260409020805460ff19166001179055610b728488611051565b604080516001600160a01b03861681526020810187905280820189905290517f4d0f20a17c2c69e32859d771e28b0e67ea0f2574c3bdd24d09e2483fc36f26799181900360600190a18515610c0457610c048b8b8080601f0160208091040260200160405190810160405280939291908181526020018383808284376000920191909152508792508a91506111239050565b506005548114610c5b576040805162461bcd60e51b815260206004820152601f60248201527f5265656e7472616e637947756172643a207265656e7472616e742063616c6c00604482015290519081900360640190fd5b505050505050505050505050565b604080518281526020808402820101909152606090828015610c95578160200160208202803883390190505b50905060005b82811015610cea57610cbe848483818110610cb257fe5b90506020020135610f74565b15610ce2576001828281518110610cd157fe5b911515602092830291909101909101525b600101610c9b565b5092915050565b600580546001019081905560008381526007602052604090205460ff1615610d4a5760405162461bcd60e51b81526004018080602001828103825260218152602001806115c26021913960400191505060405180910390fd5b6000610d5584611341565b6000858152600760205260409020805460ff191660011790559050610d79836114e1565b6009546040805180820182528681526020810186905281516370ffa84160e11b81526001600160a01b039093169263e1ff5082928a928a92909160048201918291602490910190849080838360005b83811015610de0578181015183820152602001610dc8565b505050509050018281038252858582818152602001925080828437600081840152601f19601f820116905080830192505050945050505050602060405180830381600087803b158015610e3257600080fd5b505af1158015610e46573d6000803e3d6000fd5b505050506040513d6020811015610e5c57600080fd5b5051610eaa576040805162461bcd60e51b815260206004820152601860248201527724b73b30b634b21021b7b6b6b4ba36b2b73a10383937b7b360411b604482015290519081900360640190fd5b6040805163ffffffff83168152426020820152815186927fa945e51eec50ab98c161376f0db4cf2aeba3ec92755fe2fcd388bdbbb80ff196928290030190a2506005548114610f40576040805162461bcd60e51b815260206004820152601f60248201527f5265656e7472616e637947756172643a207265656e7472616e742063616c6c00604482015290519081900360640190fd5b5050505050565b60048181548110610f5457fe5b600091825260209091200154905081565b6009546001600160a01b031681565b60009081526006602052604090205460ff1690565b60028181548110610f5457fe5b7f2fe54c60d3acabf3343a35b6eba15db4821b340f76e741e2249685ed4899af6c81565b600a546001600160a01b031633146110035760405162461bcd60e51b81526004018080602001828103825260258152602001806116086025913960400191505060405180910390fd5b600880546001600160a01b039384166001600160a01b03199182161790915560098054929093169116179055565b60018181548110610f5457fe5b600354600160201b900463ffffffff1681565b341561108e5760405162461bcd60e51b815260040180806020018281038252603581526020018061162d6035913960400191505060405180910390fd5b6040516000906001600160a01b0384169083908381818185875af1925050503d80600081146110d9576040519150601f19603f3d011682016040523d82523d6000602084013e6110de565b606091505b505090508061111e5760405162461bcd60e51b81526004018080602001828103825260258152602001806115e36025913960400191505060405180910390fd5b505050565b60008281526007602052604090205460ff16156111715760405162461bcd60e51b81526004018080602001828103825260218152602001806115c26021913960400191505060405180910390fd5b600061117c83611341565b6000848152600760209081526040808320805460ff191660011790556009548151808301835288815292830187905281516370ffa84160e11b81529495506001600160a01b03169363e1ff5082938993926004830192839260249091019185918190849084905b838110156111fb5781810151838201526020016111e3565b50505050905001828103825284818151815260200191508051906020019080838360005b8381101561123757818101518382015260200161121f565b50505050905090810190601f1680156112645780820380516001836020036101000a031916815260200191505b509350505050602060405180830381600087803b15801561128457600080fd5b505af1158015611298573d6000803e3d6000fd5b505050506040513d60208110156112ae57600080fd5b50516112fc576040805162461bcd60e51b815260206004820152601860248201527724b73b30b634b21021b7b6b6b4ba36b2b73a10383937b7b360411b604482015290519081900360640190fd5b6040805163ffffffff83168152426020820152815185927fa945e51eec50ab98c161376f0db4cf2aeba3ec92755fe2fcd388bdbbb80ff196928290030190a250505050565b60035460008054909163ffffffff600160201b909104811691811660020a1681141561139e5760405162461bcd60e51b815260040180806020018281038252602f815260200180611552602f913960400191505060405180910390fd5b6003805463ffffffff600160201b80830482166001019091160267ffffffff000000001990911617905582600080805b60005463ffffffff908116908216101561147657600185166114325783925060028163ffffffff168154811061140057fe5b906000526020600020015491508360018263ffffffff168154811061142157fe5b600091825260209091200155611456565b60018163ffffffff168154811061144557fe5b906000526020600020015492508391505b61146083836106a9565b9350600263ffffffff86160494506001016113ce565b50506003805463ffffffff198116600163ffffffff928316810183169190911783556004805491820181556000527f8a35acfbc15ff81a39ae7d344fd709f28e8600b4aa8c65c6b64bfe7fe36bd19b019390935554600160201b900490911660001901949350505050565b80341461151f5760405162461bcd60e51b815260040180806020018281038252602f815260200180611523602f913960400191505060405180910390fd5b5056fe506c656173652073656e6420605f76616c7565602045544820616c6f6e672077697468207472616e73616374696f6e4d65726b6c6520747265652069732066756c6c2e204e6f206d6f7265206c656166732063616e2062652061646465645f72696768742073686f756c6420626520696e7369646520746865206669656c6430644e72e131a029b85045b68181585d2833e84879b9709143e1f593f000000154686520636f6d6d69746d656e7420686173206265656e207375626d69747465647061796d656e7420746f205f726563697069656e7420646964206e6f7420676f20746872754f6e6c79206f70657261746f722063616e2063616c6c20746869732066756e6374696f6e2e4d6573736167652076616c756520697320737570706f73656420746f206265207a65726f20666f722045544820696e7374616e6365a265627a7a7231582068baefbc2407132a008a2c6450daed901ba40298eb6f45a03c9a7817ffa535e464736f6c63430005110032405787fa12a823e0f2b7631cc41b3ba8828b3321ca811111fa75cd3aa3bb5ace5f72696768742073686f756c6420626520696e7369646520746865206669656c645f747265654c6576656c732073686f756c642062652067726561746572207468616e207a65726f30644e72e131a029b85045b68181585d2833e84879b9709143e1f593f00000015f747265654c6576656c732073686f756c64206265206c657373207468616e203332b10e2d527612073b26eecdfd717e6a320cf44b4afac2b0732d9fcbe2b7fa0cf6",
  "source": "// https://tornado.cash\n/*\n* d888888P                                           dP              a88888b.                   dP\n*    88                                              88             d8'   `88                   88\n*    88    .d8888b. 88d888b. 88d888b. .d8888b. .d888b88 .d8888b.    88        .d8888b. .d8888b. 88d888b.\n*    88    88'  `88 88'  `88 88'  `88 88'  `88 88'  `88 88'  `88    88        88'  `88 Y8ooooo. 88'  `88\n*    88    88.  .88 88       88    88 88.  .88 88.  .88 88.  .88 dP Y8.   .88 88.  .88       88 88    88\n*    dP    `88888P' dP       dP    dP `88888P8 `88888P8 `88888P' 88  Y88888P' `88888P8 `88888P' dP    dP\n* ooooooooooooooooooooooooooooooooooooooooooooooooooooooooooooooooooooooooooooooooooooooooooooooooooooooo\n*/\n\npragma solidity 0.5.17;\n\nimport \"./PrivacyVault.sol\";\n\ncontract ETHPrivacyVault is PrivacyVault {\n  constructor(\n    ISpendVerifier _spendVerifier,\n    ICommitmentVerifier _commitmentVerifier,\n    uint32 _merkleTreeHeight,\n    address _operator\n  ) PrivacyVault(_spendVerifier, _commitmentVerifier, _merkleTreeHeight, _operator) public {\n  }\n\n  function _processDeposit(uint256 _value) internal {\n    require(msg.value == _value, \"Please send `_value` ETH along with transaction\");\n  }\n\n  function _processSpend(address payable _recipient, uint256 _value) internal {\n    // sanity checks\n    require(msg.value == 0, \"Message value is supposed to be zero for ETH instance\");\n\n    (bool success, ) = _recipient.call.value(_value)(\"\");\n    require(success, \"payment to _recipient did not go thru\");\n\n  }\n}\n",
  "sourcePath": "/home/zy/hackathon/tornado-core/contracts/ETHPrivacyVault.sol",
  "compiler": {
    "name": "solc",
    "version": "0.5.17+commit.d19bba13.Emscripten.clang"
  },
  "schemaVersion": "3.0.18",
  "updatedAt": "2020-06-29T06:38:11.112Z",
  "networkType": "ethereum",
  "devdoc": {
    "methods": {
      "changeOperator(address)": {
        "details": "operator can change his address "
      },
      "hashLeftRight(bytes32,bytes32)": {
        "details": "Hash 2 tree leaves, returns MiMC(_left, _right)"
      },
      "isKnownRoot(bytes32,uint256)": {
        "details": "Whether the root is present in the root history"
      },
      "isSpent(bytes32)": {
        "details": "whether a note is already spent "
      },
      "isSpentArray(bytes32[])": {
        "details": "whether an array of notes is already spent "
      }
    }
  },
  "userdoc": {
    "methods": {}
  }
}