{
  "contractName": "MerkleTreeWithRootHistoryMock",
  "abi": [
    {
      "inputs": [
        {
          "internalType": "uint32",
          "name": "_treeLevels",
          "type": "uint32"
        }
      ],
      "payable": false,
      "stateMutability": "nonpayable",
      "type": "constructor"
    },
    {
      "constant": true,
      "inputs": [],
      "name": "FIELD_SIZE",
      "outputs": [
        {
          "internalType": "uint256",
          "name": "",
          "type": "uint256"
        }
      ],
      "payable": false,
      "stateMutability": "view",
      "type": "function"
    },
    {
      "constant": true,
      "inputs": [],
      "name": "ZERO_VALUE",
      "outputs": [
        {
          "internalType": "uint256",
          "name": "",
          "type": "uint256"
        }
      ],
      "payable": false,
      "stateMutability": "view",
      "type": "function"
    },
    {
      "constant": true,
      "inputs": [],
      "name": "currentRootIndex",
      "outputs": [
        {
          "internalType": "uint32",
          "name": "",
          "type": "uint32"
        }
      ],
      "payable": false,
      "stateMutability": "view",
      "type": "function"
    },
    {
      "constant": true,
      "inputs": [
        {
          "internalType": "uint256",
          "name": "",
          "type": "uint256"
        }
      ],
      "name": "filledSubtrees",
      "outputs": [
        {
          "internalType": "bytes32",
          "name": "",
          "type": "bytes32"
        }
      ],
      "payable": false,
      "stateMutability": "view",
      "type": "function"
    },
    {
      "constant": true,
      "inputs": [
        {
          "internalType": "bytes32",
          "name": "_left",
          "type": "bytes32"
        },
        {
          "internalType": "bytes32",
          "name": "_right",
          "type": "bytes32"
        }
      ],
      "name": "hashLeftRight",
      "outputs": [
        {
          "internalType": "bytes32",
          "name": "",
          "type": "bytes32"
        }
      ],
      "payable": false,
      "stateMutability": "pure",
      "type": "function"
    },
    {
      "constant": true,
      "inputs": [
        {
          "internalType": "bytes32",
          "name": "_root",
          "type": "bytes32"
        },
        {
          "internalType": "uint256",
          "name": "_index",
          "type": "uint256"
        }
      ],
      "name": "isKnownRoot",
      "outputs": [
        {
          "internalType": "bool",
          "name": "",
          "type": "bool"
        }
      ],
      "payable": false,
      "stateMutability": "view",
      "type": "function"
    },
    {
      "constant": true,
      "inputs": [],
      "name": "levels",
      "outputs": [
        {
          "internalType": "uint32",
          "name": "",
          "type": "uint32"
        }
      ],
      "payable": false,
      "stateMutability": "view",
      "type": "function"
    },
    {
      "constant": true,
      "inputs": [],
      "name": "nextIndex",
      "outputs": [
        {
          "internalType": "uint32",
          "name": "",
          "type": "uint32"
        }
      ],
      "payable": false,
      "stateMutability": "view",
      "type": "function"
    },
    {
      "constant": true,
      "inputs": [
        {
          "internalType": "uint256",
          "name": "",
          "type": "uint256"
        }
      ],
      "name": "roots",
      "outputs": [
        {
          "internalType": "bytes32",
          "name": "",
          "type": "bytes32"
        }
      ],
      "payable": false,
      "stateMutability": "view",
      "type": "function"
    },
    {
      "constant": true,
      "inputs": [
        {
          "internalType": "uint256",
          "name": "",
          "type": "uint256"
        }
      ],
      "name": "zeros",
      "outputs": [
        {
          "internalType": "bytes32",
          "name": "",
          "type": "bytes32"
        }
      ],
      "payable": false,
      "stateMutability": "view",
      "type": "function"
    },
    {
      "constant": false,
      "inputs": [
        {
          "internalType": "bytes32",
          "name": "_leaf",
          "type": "bytes32"
        }
      ],
      "name": "insert",
      "outputs": [],
      "payable": false,
      "stateMutability": "nonpayable",
      "type": "function"
    }
  ],
  "bytecode": "0x6080604052600380546001600160401b031916905534801561002057600080fd5b50604051610b84380380610b848339818101604052602081101561004357600080fd5b50518063ffffffff81166100885760405162461bcd60e51b8152600401808060200182810382526027815260200180610afb6027913960400191505060405180910390fd5b60208163ffffffff16106100cd5760405162461bcd60e51b8152600401808060200182810382526022815260200180610b426022913960400191505060405180910390fd5b6000805463ffffffff191663ffffffff83161781556002805460018181019092557f2fe54c60d3acabf3343a35b6eba15db4821b340f76e741e2249685ed4899af6c600080516020610aba8339815191529091018190558154808301835592829052600080516020610b648339815191529092018290555b60005463ffffffff90811690821610156101b35761016c82806001600160e01b036101e816565b600280546001818101909255600080516020610aba83398151915201829055805480820182556000829052600080516020610b648339815191520182905590925001610145565b5060046101c982806001600160e01b036101e816565b81546001810183556000928352602090922090910155506103c9915050565b6000600080516020610b22833981519152831061024c576040805162461bcd60e51b815260206004820181905260248201527f5f6c6566742073686f756c6420626520696e7369646520746865206669656c64604482015290519081900360640190fd5b600080516020610b2283398151915282106102985760405162461bcd60e51b8152600401808060200182810382526021815260200180610ada6021913960400191505060405180910390fd5b6040805163f47d33b560e01b81526004810185905260006024820181905282518693919273__Hasher________________________________9263f47d33b592604480840193829003018186803b1580156102f257600080fd5b505af4158015610306573d6000803e3d6000fd5b505050506040513d604081101561031c57600080fd5b5080516020909101519092509050600080516020610b22833981519152848308915073__Hasher________________________________63f47d33b583836040518363ffffffff1660e01b81526004018083815260200182815260200192505050604080518083038186803b15801561039457600080fd5b505af41580156103a8573d6000803e3d6000fd5b505050506040513d60408110156103be57600080fd5b505195945050505050565b6106e2806103d86000396000f3fe608060405234801561001057600080fd5b50600436106100a95760003560e01c806390eeb02b1161007157806390eeb02b14610162578063c2b40ae41461016a578063e829558814610187578063ec732959146101a4578063f178e47c146101ac578063fc7e9c6f146101c9576100a9565b80632d287e43146100ae57806338bf282e146100cd578063414a37ba146101025780634ecf518b1461010a578063876cf0c41461012b575b600080fd5b6100cb600480360360208110156100c457600080fd5b50356101d1565b005b6100f0600480360360408110156100e357600080fd5b50803590602001356101de565b60408051918252519081900360200190f35b6100f06103c1565b6101126103d3565b6040805163ffffffff9092168252519081900360200190f35b61014e6004803603604081101561014157600080fd5b50803590602001356103df565b604080519115158252519081900360200190f35b61011261041e565b6100f06004803603602081101561018057600080fd5b503561042a565b6100f06004803603602081101561019d57600080fd5b5035610448565b6100f0610455565b6100f0600480360360208110156101c257600080fd5b5035610479565b610112610486565b6101da8161049a565b5050565b600060008051602061068e8339815191528310610242576040805162461bcd60e51b815260206004820181905260248201527f5f6c6566742073686f756c6420626520696e7369646520746865206669656c64604482015290519081900360640190fd5b60008051602061068e833981519152821061028e5760405162461bcd60e51b815260040180806020018281038252602181526020018061066d6021913960400191505060405180910390fd5b6040805163f47d33b560e01b81526004810185905260006024820181905282518693919273__Hasher________________________________9263f47d33b592604480840193829003018186803b1580156102e857600080fd5b505af41580156102fc573d6000803e3d6000fd5b505050506040513d604081101561031257600080fd5b508051602090910151909250905060008051602061068e833981519152848308915073__Hasher________________________________63f47d33b583836040518363ffffffff1660e01b81526004018083815260200182815260200192505050604080518083038186803b15801561038a57600080fd5b505af415801561039e573d6000803e3d6000fd5b505050506040513d60408110156103b457600080fd5b5051925050505b92915050565b60008051602061068e83398151915281565b60005463ffffffff1681565b6000826103ee575060006103bb565b82600483815481106103fc57fe5b90600052602060002001541415610415575060016103bb565b50600092915050565b60035463ffffffff1681565b6004818154811061043757fe5b600091825260209091200154905081565b6002818154811061043757fe5b7f2fe54c60d3acabf3343a35b6eba15db4821b340f76e741e2249685ed4899af6c81565b6001818154811061043757fe5b600354640100000000900463ffffffff1681565b60035460008054909163ffffffff640100000000909104811691811660020a168114156104f85760405162461bcd60e51b815260040180806020018281038252602f81526020018061063e602f913960400191505060405180910390fd5b6003805463ffffffff64010000000080830482166001019091160267ffffffff000000001990911617905582600080805b60005463ffffffff90811690821610156105d1576001851661058d5783925060028163ffffffff168154811061055b57fe5b906000526020600020015491508360018263ffffffff168154811061057c57fe5b6000918252602090912001556105b1565b60018163ffffffff16815481106105a057fe5b906000526020600020015492508391505b6105bb83836101de565b9350600263ffffffff8616049450600101610529565b50506003805463ffffffff198116600163ffffffff928316810183169190911783556004805491820181556000527f8a35acfbc15ff81a39ae7d344fd709f28e8600b4aa8c65c6b64bfe7fe36bd19b01939093555464010000000090049091166000190194935050505056fe4d65726b6c6520747265652069732066756c6c2e204e6f206d6f7265206c656166732063616e2062652061646465645f72696768742073686f756c6420626520696e7369646520746865206669656c6430644e72e131a029b85045b68181585d2833e84879b9709143e1f593f0000001a265627a7a72315820992aeed3f4baea41ef5122ffafc5d3ad1c88747e4efd08456dedd176408d47a264736f6c63430005110032405787fa12a823e0f2b7631cc41b3ba8828b3321ca811111fa75cd3aa3bb5ace5f72696768742073686f756c6420626520696e7369646520746865206669656c645f747265654c6576656c732073686f756c642062652067726561746572207468616e207a65726f30644e72e131a029b85045b68181585d2833e84879b9709143e1f593f00000015f747265654c6576656c732073686f756c64206265206c657373207468616e203332b10e2d527612073b26eecdfd717e6a320cf44b4afac2b0732d9fcbe2b7fa0cf6",
  "source": "pragma solidity 0.5.17;\n\nimport '../MerkleTreeWithRootHistory.sol';\n\ncontract MerkleTreeWithRootHistoryMock is MerkleTreeWithRootHistory {\n\n  constructor (uint32 _treeLevels) MerkleTreeWithRootHistory(_treeLevels) public {}\n\n  function insert(bytes32 _leaf) public {\n      _insert(_leaf);\n  }\n}\n",
  "sourcePath": "/home/zy/privacy-vault/contracts/Mocks/MerkleTreeWithRootHistoryMock.sol",
  "compiler": {
    "name": "solc",
    "version": "0.5.17+commit.d19bba13.Emscripten.clang"
  },
  "schemaVersion": "3.2.0",
  "updatedAt": "2020-06-29T09:48:59.476Z",
  "devdoc": {
    "methods": {
      "hashLeftRight(bytes32,bytes32)": {
        "details": "Hash 2 tree leaves, returns MiMC(_left, _right)"
      },
      "isKnownRoot(bytes32,uint256)": {
        "details": "Whether the root is present in the root history"
      }
    }
  },
  "userdoc": {
    "methods": {}
  }
}